{
  "contractName": "HelloWorld",
  "abi": [
    {
      "inputs": [],
      "stateMutability": "nonpayable",
      "type": "constructor"
    },
    {
      "inputs": [],
      "name": "yourName",
      "outputs": [
        {
          "internalType": "string",
          "name": "",
          "type": "string"
        }
      ],
      "stateMutability": "view",
      "type": "function",
      "constant": true
    },
    {
      "inputs": [
        {
          "internalType": "string",
          "name": "nm",
          "type": "string"
        }
      ],
      "name": "setName",
      "outputs": [],
      "stateMutability": "nonpayable",
      "type": "function"
    }
  ],
  "bytecode": "0x60806040523480156200001157600080fd5b506040518060400160405280600781526020017f556e6b6e6f776e0000000000000000000000000000000000000000000000000081525060009081620000589190620002df565b50620003c6565b600081519050919050565b7f4e487b7100000000000000000000000000000000000000000000000000000000600052604160045260246000fd5b7f4e487b7100000000000000000000000000000000000000000000000000000000600052602260045260246000fd5b60006002820490506001821680620000e157607f821691505b602082108103620000f757620000f662000099565b5b50919050565b60008190508160005260206000209050919050565b60006020601f8301049050919050565b60008160020a8302905092915050565b600060088302620001647fffffffffffffffffffffffffffffffffffffffffffffffffffffffffffffffff8262000122565b62000170868362000122565b95508019841693508086168417925050509392505050565b6000819050919050565b6000819050919050565b6000620001bd620001b7620001b18462000188565b62000192565b62000188565b9050919050565b6000819050919050565b620001d9836200019c565b620001f1620001e882620001c4565b84845462000132565b825550505050565b600090565b62000208620001f9565b62000215818484620001ce565b505050565b5b818110156200023d5762000231600082620001fe565b6001810190506200021b565b5050565b601f8211156200028c576200025681620000fd565b620002618462000112565b8101602085101562000271578190505b62000289620002808562000112565b8301826200021a565b50505b505050565b60008160020a8304905092915050565b6000620002b46000198460080262000291565b1980831691505092915050565b6000620002cf8383620002a1565b9150826002028217905092915050565b620002ea826200005f565b67ffffffffffffffff8111156200030657620003056200006a565b5b620003128254620000c8565b6200031f82828562000241565b600060209050601f83116001811462000357576000841562000342578287015190505b6200034e8582620002c1565b865550620003be565b601f1984166200036786620000fd565b60005b8281101562000391578489015182556001820191506020850194506020810190506200036a565b86831015620003b15784890151620003ad601f891682620002a1565b8355505b6001600288020188555050505b505050505050565b6106a480620003d66000396000f3fe608060405234801561001057600080fd5b5060043610610053576000357c010000000000000000000000000000000000000000000000000000000090048063c47f002714610058578063d97d663014610074575b600080fd5b610072600480360381019061006d919061028d565b610092565b005b61007c6100a5565b604051610089919061035e565b60405180910390f35b80600090816100a1919061059c565b5050565b600080546100b2906103af565b80601f01602080910402602001604051908101604052809291908181526020018280546100de906103af565b801561012b5780601f106101005761010080835404028352916020019161012b565b820191906000526020600020905b81548152906001019060200180831161010e57829003601f168201915b505050505081565b6000604051905090565b600080fd5b600080fd5b600080fd5b600080fd5b6000601f19601f8301169050919050565b7f4e487b7100000000000000000000000000000000000000000000000000000000600052604160045260246000fd5b61019a82610151565b810181811067ffffffffffffffff821117156101b9576101b8610162565b5b80604052505050565b60006101cc610133565b90506101d88282610191565b919050565b600067ffffffffffffffff8211156101f8576101f7610162565b5b61020182610151565b9050602081019050919050565b82818337600083830152505050565b600061023061022b846101dd565b6101c2565b90508281526020810184848401111561024c5761024b61014c565b5b61025784828561020e565b509392505050565b600082601f83011261027457610273610147565b5b813561028484826020860161021d565b91505092915050565b6000602082840312156102a3576102a261013d565b5b600082013567ffffffffffffffff8111156102c1576102c0610142565b5b6102cd8482850161025f565b91505092915050565b600081519050919050565b600082825260208201905092915050565b60005b838110156103105780820151818401526020810190506102f5565b8381111561031f576000848401525b50505050565b6000610330826102d6565b61033a81856102e1565b935061034a8185602086016102f2565b61035381610151565b840191505092915050565b600060208201905081810360008301526103788184610325565b905092915050565b7f4e487b7100000000000000000000000000000000000000000000000000000000600052602260045260246000fd5b600060028204905060018216806103c757607f821691505b6020821081036103da576103d9610380565b5b50919050565b60008190508160005260206000209050919050565b60006020601f8301049050919050565b60008160020a8302905092915050565b6000600883026104457fffffffffffffffffffffffffffffffffffffffffffffffffffffffffffffffff82610405565b61044f8683610405565b95508019841693508086168417925050509392505050565b6000819050919050565b6000819050919050565b600061049661049161048c84610467565b610471565b610467565b9050919050565b6000819050919050565b6104b08361047b565b6104c46104bc8261049d565b848454610415565b825550505050565b600090565b6104d96104cc565b6104e48184846104a7565b505050565b5b81811015610508576104fd6000826104d1565b6001810190506104ea565b5050565b601f82111561054d5761051e816103e0565b610527846103f5565b81016020851015610536578190505b61054a610542856103f5565b8301826104e9565b50505b505050565b60008160020a8304905092915050565b600061057360001984600802610552565b1980831691505092915050565b600061058c8383610562565b9150826002028217905092915050565b6105a5826102d6565b67ffffffffffffffff8111156105be576105bd610162565b5b6105c882546103af565b6105d382828561050c565b600060209050601f83116001811461060657600084156105f4578287015190505b6105fe8582610580565b865550610666565b601f198416610614866103e0565b60005b8281101561063c57848901518255600182019150602085019450602081019050610617565b868310156106595784890151610655601f891682610562565b8355505b6001600288020188555050505b50505050505056fea2646970667358221220efcc14dde1245dc1abe10c0e124cb46a8dbbd8efa6b2ee1c4ce8beb3d9e947bf64736f6c634300080f0033",
  "immutableReferences": {},
  "source": "// SPDX-License-Identifier: MIT\npragma solidity >=0.4.22 <0.9.0;\n\ncontract HelloWorld {\n  string public yourName;\n  \n  constructor() public {\n    yourName = \"Unknown\";\n  }\n\n  function setName(string memory nm) public {\n    yourName = nm;\n  }\n}\n",
  "sourcePath": "/Users/afirez/studio/flutter/app_flutter_web3/contracts/HelloWorld.sol",
  "compiler": {
    "name": "solc",
    "version": "0.8.15+commit.e14f2714.Emscripten.clang"
  },
  "schemaVersion": "3.4.7",
  "updatedAt": "2022-06-25T08:16:12.479Z",
  "networkType": "ethereum",
  "devdoc": {
    "kind": "dev",
    "methods": {},
    "version": 1
  },
  "userdoc": {
    "kind": "user",
    "methods": {},
    "version": 1
  }
}